:020000020000FC
:040000000C94270035
:04000C000C94EF0061
:040034000C943501F2
:100040000C944E013F065B4F666D7D077F6F0FEF8F
:100050000DBF08E00EBFF89400E800E800936100CF
:100060000FE105B900E204B90FE307B900EC08B9E4
:100070000FEF0AB90FE100936B0001E000936800F5
:1000800000E00093C10001E0789481E000E010E01E
:1000900029E035E043E052E066E070E0803021F096
:1000A000813019F00C944E0001C046C01C3379F128
:1000B0002A3081F1363089F14A3091F1523099F18C
:1000C0000E94E20001E208B9F0E0E4E4E20F94915A
:1000D0009BB90E94E20002E008B9F0E0E4E4E40F1A
:1000E00094919BB90E94E20004E008B9F0E0E4E4D6
:1000F000E50F94919BB90E94E20004E008B9F0E09A
:10010000E4E4E70F94919BB90E94E200C7CF10E0AE
:100110002395CCCF20E03395C9CF30E04395C6CFAF
:1001200040E05395C3CF343009F0CACF20E030E02F
:1001300040E050E06395BACF2A3091F1363099F122
:100140004A30A1F15230A9F10E94E20001E208B95F
:1001500001E008B9F0E0E4E4E20F94919BB90E9459
:10016000E20002E008B9F0E0E4E4E40F94919BB906
:100170000E94E20004E008B9F0E0E4E4E50F9491A5
:100180009BB90E94E20004E008B9F0E0E4E4E70F64
:1001900094919BB90E94E20081CF10E02395CCCFCF
:1001A00020E03395C9CF30E04395C6CF40E053956A
:1001B000C3CF343009F0C8CF20E030E040E050E059
:1001C0006395C2CF3FEF3A95F1F73FEF3A95F1F7DC
:1001D0003FEF3A95F1F73FEF3A95F1F708950F9316
:1001E0000FB70F9303B104FF4395423019F440E079
:1001F0000C942001413011F00C94200100FF0C946C
:100200000201539501FF0C940F015A955F3F39F499
:1002100059E06A956F3FA1F465E00C940F0102FF6D
:100220000C941301739503FF0C9420017A957F3F82
:1002300039F473E08A958F3F19F482E00C94FE0044
:10024000D89A0F910FBF0F91189500E0009380008E
:1002500005E00093810001EE009385000BE7009319
:10026000840001E000936F0008950F930FB70F9380
:1002700011EE109385001BE710938400B09AC3958C
:100280000F910FBF0F91189500E004BD05E005BD6B
:1002900004E606BD01E000936E0008950F930FB7CA
:1002A0000F9304E606BDA89A23940F910FBF0F91F8
:0202B00018959F
:00000001FF
